:100000000C9463000C948B000C948B000C948B006C
:100010000C948B000C948B000C948B000C948B0034
:100020000C948B000C948B000C948B000C948B0024
:100030000C948B000C948B000C948B000C948B0014
:100040000C9490050C948B000C945E050C94380570
:100050000C948B000C948B000C948B000C948B00F4
:100060000C94DA050C948B006364696E6F70737581
:1000700078585B000000000800020100000304073C
:100080000000000000000000000000002500280023
:100090002B0000000000240027002A0004040404B0
:1000A0000404040402020202020203030303030322
:1000B00001020408102040800102040810200102FF
:1000C00004081020F90611241FBECFEFD8E0DEBFD0
:1000D000CDBF12E0A0E0B1E0ECECF9E102C0059088
:1000E0000D92A03FB107D9F724E0A0EFB2E001C024
:1000F0001D92AE35B207E1F710E0C3E6D0E004C0D0
:100100002197FE010E948A09C236D107C9F70E94D1
:100110003E070C94E40C0C940000E5EBF3E0A0899E
:10012000B18982E08C93A485B5851C92A685B7859C
:100130008FEC8C93108EA489B58986E08C93A2896C
:10014000B3898C9180618C93A289B3898C918860EA
:100150008C93A289B3898C9180688C930288F389EF
:10016000E02D80818F7D80830895982F2091B403A6
:1001700081E0213208F043C0809190038111FCCFCF
:100180008091B30332E03093900390938F039FEFFD
:1001900090938E0310928D0320938C03A3E9B3E018
:1001A000ECE6F3E090E0291331C010926B039091DC
:1001B0006B03880F892B80936B0380916A038130D6
:1001C00049F510926A0380916B038093BB00809184
:1001D000BC0083FDF8CF85EC8093BC008091900338
:1001E0008230E1F380918E038F3FB1F080918E03D6
:1001F0008032A1F080918E03803391F084E01092E0
:1002000092031092B4031092910308953D9131939B
:100210009F5FC9CF85EEE0CF80E0F1CF82E0EFCFE6
:1002200083E0EDCF90E0FC01E055FF4F2491845630
:100230009F4FFC018491882399F090E0880F991FCB
:10024000FC01EE56FF4FA591B491FC01E857FF4F1A
:10025000859194918FB7F894EC91E22BEC938FBF3A
:10026000089508950895AF92BF92CF92DF92EF92D2
:10027000FF920F931F93CF93DF936C017B018B0150
:10028000040F151FEB015E01AE18BF08C017D107A0
:1002900059F06991D601ED91FC910190F081E02D2A
:1002A000C6010995892B79F7C501DF91CF911F917F
:1002B0000F91FF90EF90DF90CF90BF90AF90089597
:1002C000FC01538D448D252F30E0842F90E0821B5C
:1002D000930B541710F0CF96089501970895FC01E1
:1002E000918D828D981761F0A28DAE0FBF2FB11D39
:1002F0005D968C91928D9F5F9F73928F90E0089591
:100300008FEF9FEF0895FC01918D828D981731F04A
:10031000828DE80FF11D858D90E008958FEF9FEF9E
:100320000895FC01918D228D892F90E0805C9F4F74
:10033000821B91098F739927089585EB93E00E94A2
:10034000910121E0892B09F420E0822F089580E0BB
:1003500090E0892B29F00E949D0181110C940000EE
:100360000895FC01A48DA80FB92FB11DA35ABF4F4A
:100370002C91848D90E001968F739927848FA689A4
:10038000B7892C93A089B1898C91837080648C93F8
:10039000938D848D981306C00288F389E02D8081A7
:1003A0008F7D80830895EF92FF920F931F93CF93D9
:1003B000DF93EC0181E0888F9B8D8C8D98131AC0A0
:1003C000E889F989808185FF15C09FB7F894EE8987
:1003D000FF896083E889F9898081837080648083E4
:1003E0009FBF81E090E0DF91CF911F910F91FF902F
:1003F000EF900895F62E0B8D10E00F5F1F4F0F73D7
:100400001127E02E8C8D8E110CC00FB607FCFACF91
:10041000E889F989808185FFF5CFCE010E94B1017D
:10042000F1CFEB8DEC0FFD2FF11DE35AFF4FF08262
:100430009FB7F8940B8FEA89FB8980818062CFCFC8
:10044000682F85EB93E00C94D301CF93DF93EC01FD
:10045000888D8823B9F0AA89BB89E889F9898C91AC
:1004600085FD03C0808186FD0DC00FB607FCF7CF68
:100470008C9185FFF2CF808185FFEDCFCE010E9468
:10048000B101E9CFDF91CF91089590E0FC01EC58E4
:10049000FF4F2491FC01E055FF4F3491FC01E456DD
:1004A000FF4FE491EE23C9F0222339F0233001F10C
:1004B000A8F4213019F1223029F1F0E0EE0FFF1FEE
:1004C000E857FF4FA591B4918FB7F894EC91611163
:1004D00026C030953E233C938FBF08952730A9F066
:1004E0002830C9F0243049F7809180008F7D03C007
:1004F000809180008F7780938000DFCF84B58F77E5
:1005000084BDDBCF84B58F7DFBCF8091B0008F772A
:100510008093B000D2CF8091B0008F7DF9CF3E2B79
:10052000DACF10926903109268031092920310922E
:10053000B4031092900381E080938F0310926A03BA
:1005400061E082E10E94450261E083E10E94450290
:10055000E9EBF0E080818E7F808380818D7F8083D6
:1005600088E48093B80085E48093BC0081E391E047
:10057000909367038093660382E391E09093650311
:100580008093640308953FB7F89480915803909145
:100590005903A0915A03B0915B0326B5A89B05C0EF
:1005A0002F3F19F00196A11DB11D3FBFBA2FA92FF2
:1005B000982F8827BC01CD01620F711D811D911DEF
:1005C00042E0660F771F881F991F4A95D1F708955B
:1005D0008F929F92AF92BF92CF92DF92EF92FF9253
:1005E0004B015C010E94C3026B017C010E94C302AB
:1005F0006C197D098E099F09683E7340810591053C
:10060000A8F321E0821A9108A108B10888EEC80E6B
:1006100083E0D81EE11CF11C81149104A104B104F3
:1006200029F7FF90EF90DF90CF90BF90AF909F9011
:100630008F9008958091680390916903891B990BAD
:10064000089585ED8093BC008091BC0084FDFCCFB3
:1006500010929003089520911003260F3327331F23
:1006600021323105ECF420919003FC0190E080E010
:10067000243069F082E00895A09110032191AC012B
:1006800040515D4FA40FB52FB11D2C9301968617D5
:1006900098F380911003680F6093100380E0089531
:1006A00081E008950895E091690380916803E81757
:1006B00030F4F0E0ED5CFC4F808190E008958FEF26
:1006C0009FEF089590916903809168032FEF3FEFAA
:1006D000981748F4E92FF0E0ED5CFC4F208130E002
:1006E0009F5F90936903C9010895CF92DF92EF92C3
:1006F000FF920F931F93CF93DF937C01CB018A016D
:1007000020919103222389F0EB016B01C40ED51EC9
:10071000CC15DD0569F06991D701ED91FC9101904F
:10072000F081E02DC7010995F3CF642F0E942B03C0
:10073000C801DF91CF911F910F91FF90EF90DF9053
:10074000CF900895CF93DF931F92CDB7DEB7698323
:10075000209191032223F9F02091B403203258F024
:1007600021E030E0FC013383228390E080E00F90B1
:10077000DF91CF91089580919203E82FF0E0ED563C
:10078000FC4F998190838F5F809392038093B40391
:1007900081E090E0ECCF61E0CE0101960E942B0356
:1007A000F7CF90E080E00895FC0101900020E9F788
:1007B0003197AF01481B590BBC0185EB93E00C94BA
:1007C00033018F929F92AF92BF920F931F93CF935B
:1007D000DF93CDB7DEB7A1970FB6F894DEBF0FBE9B
:1007E000CDBF19A2423008F44AE08E010F5D1F4FC1
:1007F000842E912CB12CA12CA50194010E94680992
:10080000E62FB901CA01EA30F4F4E05DD801EE93B5
:100810008D01232B242B252B79F790E080E0109776
:1008200019F0CD010E94D403A1960FB6F894DEBF53
:100830000FBECDBFDF91CF911F910F91BF90AF90B1
:100840009F908F900895E95CE1CFCF92DF92EF9275
:10085000FF92CF93DF936B017C016DE285EB93E018
:100860000E94D301EC0166277727CB016C197D0923
:100870008E099F094AE00E94E1038C0F9D1FDF91C2
:10088000CF91FF90EF90DF90CF900895CF93DF93BB
:100890000E94D403EC018CE391E00E94D4038C0FFE
:1008A0009D1FDF91CF910895CF93DF93EC010A97BD
:1008B00024F480E390E00E942002BE01DD0F880B4B
:1008C000990B4AE0DF91CF910C94E1030F931F93B2
:1008D000CF93DF938C01C1E0C093910388E68093AE
:1008E000B303109292031092B40360E082E594E0A7
:1008F0000E94A20381E00E94B500882321F010929B
:10090000630380E0A8C0C0936303909190039111AA
:10091000FCCF91E09093900390938F032FEF20935F
:100920008E0310928D0326E020938C0390936B032B
:1009300090916B03906D90936B0390916A0391304B
:1009400009F08EC010926A0390916B039093BB00E4
:100950009091BC0093FDF8CF95EC9093BC009091E2
:1009600090039130E1F390918D03973008F07AC0B5
:1009700090918D03ECE6F3E0A3E3B3E0891374C038
:100980001092690380936803873008F4BACF82E538
:1009900094E00E946203C82F982F92959770DAE036
:1009A0008C2F8F709D9F800D1124F801808382E52C
:1009B00094E00E946203982F92959F708F709D9F84
:1009C000800D1124F801818382E594E00E94620386
:1009D000982F929593708F709D9F800D1124F80130
:1009E000828382E594E00E946203982F92959F7023
:1009F0008F709D9F800D1124F801838382E594E020
:100A00000E946203982F92959F708F709D9F800D1A
:100A10001124F801848382E594E00E946203982FF8
:100A200092959F708F709D9F800D1124F801858392
:100A300082E594E00E946203982F92959F708F70D8
:100A4000825E9D9F800D1124F80186838C2F8095F6
:100A5000881F8827881FDF91CF911F910F910895DC
:100A600095EE7BCF97E086CF21912D938F5F86CF38
:100A70001F920F920FB60F9211242F933F934F9313
:100A80005F936F937F938F939F93AF93BF93EF93F6
:100A9000FF9385EB93E00E94B101FF91EF91BF912D
:100AA000AF919F918F917F916F915F914F913F9106
:100AB0002F910F900FBE0F901F9018951F920F92BD
:100AC0000FB60F9211242F938F939F93EF93FF9361
:100AD000E091C503F091C6038081E091CB03F091D2
:100AE000CC0382FD1BC090818091CE038F5F8F73FA
:100AF0002091CF03821741F0E091CE03F0E0EB5458
:100B0000FC4F958F8093CE03FF91EF919F918F9132
:100B10002F910F900FBE0F901F9018958081F4CFEA
:100B20001F920F920FB60F9211242F933F938F9322
:100B30009F93AF93BF938091540390915503A091DD
:100B40005603B09157033091530323E0230F2D3701
:100B500058F50196A11DB11D2093530380935403B2
:100B600090935503A0935603B09357038091580375
:100B700090915903A0915A03B0915B030196A11D76
:100B8000B11D8093580390935903A0935A03B093D7
:100B90005B03BF91AF919F918F913F912F910F90E8
:100BA0000FBE0F901F90189526E8230F0296A11DE7
:100BB000B11DD2CF1F920F920FB60F9211242F9317
:100BC0003F934F935F936F937F938F939F93AF93D5
:100BD000BF93EF93FF938091B900887F803609F42B
:100BE0004AC0F0F5883209F4A7C018F5803109F43D
:100BF0009BC0B8F4882309F4F9C0883009F494C084
:100C0000FF91EF91BF91AF919F918F917F916F91E4
:100C10005F914F913F912F910F900FBE0F901F90BA
:100C20001895883109F488C0803251F780938E037B
:100C300014C0803409F49DC040F48033B9F3883384
:100C4000F9F680938E0385ECB0C0803509F485C039
:100C5000883509F496C0883499F60E942103D0CFD4
:100C6000883909F48CC038F5883729F050F4883673
:100C700011F0803729F683E08093900310923203BD
:100C800057C0883809F47BC0803919F0803809F0E2
:100C9000B7CF80913203803208F071C0E091320307
:100CA00081E08E0F809332038091BB00F0E0EE5E16
:100CB000FC4F80833DC0803B39F0E0F4803A09F47A
:100CC00079C0883A09F09CCF84E080939003109219
:100CD000110310921003E0916603F09167030995E8
:100CE0008091100381110FC081E080931003109256
:100CF000F00209C0803C09F4A6CF883C09F4A3CFD8
:100D0000883B09F07DCFE091110381E08E0F809345
:100D10001103F0E0E051FD4F80818093BB00909182
:100D200011038091100329C080916B038093BB0055
:100D300085EC8093BC0064CF90918D0380918C03EF
:100D4000981758F5E0918D0381E08E0F80938D0305
:100D5000F0E0E459FC4F8081E9CFE0918D0381E020
:100D60008E0F80938D038091BB00F0E0E459FC4F1F
:100D7000808390918D0380918C039817C8F285E849
:100D8000D8CFE0918D0381E08E0F80938D03809109
:100D9000BB00F0E0E459FC4F808380918F03811108
:100DA0005CCF81E080936A0384EA8093BC00109258
:100DB000900326CF85EC8093BC0010929003809125
:100DC0003203803230F4E0913203F0E0EE5EFC4F0B
:100DD00010826091320370E0E0916403F09165034A
:100DE00082E193E00995109232030ACF10928E03AC
:100DF00034CFCF92DF92EF92FF92E5EBF3E01382D4
:100E0000128288EEC82E83E0D82EE12CF12CC48209
:100E1000D582E682F7828CE191E09183808385EC34
:100E200090E09587848784EC90E09787868780ECB4
:100E300090E0918B808B81EC90E0938B828B82ECA5
:100E400090E0958B848B86EC90E0978B868B118E4F
:100E5000128E138E148E0E949102E2E5F4E013824A
:100E60001282C482D582E682F7828EE291E091837B
:100E70008083FF90EF90DF90CF900895CF93DF9322
:100E8000CDB7DEB760970FB6F894DEBF0FBECDBF0B
:100E9000789484B5826084BD84B5816084BD85B555
:100EA000826085BD85B5816085BD80916E00816061
:100EB00080936E0010928100809181008260809307
:100EC0008100809181008160809381008091800009
:100ED0008160809380008091B10084608093B10034
:100EE0008091B00081608093B00080917A0084602E
:100EF00080937A0080917A00826080937A0080915A
:100F00007A00816080937A0080917A008068809373
:100F10007A001092C1000E948D000E9491028DE023
:100F20000E9412018CE00E9412016E012DE0C20E9F
:100F3000D11CDF92CF927E013FE0E30EF11CFF92C5
:100F4000EF928E010F5F1F4F1F930F938FE391E07E
:100F50009F938F9388E491E09F938F930E949909C8
:100F60000FB6F894DEBF0FBECDBF039709F495C04E
:100F7000F12CE12C0E948D0068EC70E080E090E0A4
:100F80000E94E802EE2009F4A9C0FF2009F49FC0E6
:100F900084E591E00E94D4038CE691E00E94D403A2
:100FA00085E791E00E94D40388E491E00E94460422
:100FB00080E0E82E80E0F82EC8010E9466048823B5
:100FC00009F49FC081EF91E00E94D4038B8190E0EF
:100FD0000E9454048AE390E00E9420028A8190E0FB
:100FE0000E9454048AE390E00E942002898190E0EC
:100FF0000E9454048DEF91E00E94D4036D8170E053
:1010000090E080E04AE00E94E1038FE290E00E94DD
:1010100020026E8170E090E080E04AE00E94E103EF
:101020008FE290E00E9420026F8170E06E54784F52
:10103000072E000C880B990B4AE00E94E1038CE319
:1010400091E00E94D40368EE73E080E090E00E949B
:10105000E802C8010E946604882399F08B8190E021
:101060008730910511F0439721F48A81803108F48B
:1010700062C060E08CE00E94450260E08DE00E946A
:101080004502E114F10409F497CF0E949D018823E1
:1010900009F492CF0E9400008FCF20E0822E21E041
:1010A000922EB12CF401619171914F01C8010E94FF
:1010B0009009B394892B09F448C0FCE0BF12F2CF29
:1010C00057CF10926303F12CEE24E39453CF8DE7B6
:1010D00091E00E9446048CE991E068CF88EB91E0B2
:1010E0000E94D4038CE691E00E94D40387EE91E045
:1010F0000E94D40388E491E00E94D40385EE91E03D
:1011000055CF80916303882399F08FE092E00E948D
:1011100046048EE392E00E9446048CE391E00E9434
:10112000D40368E273E280E090E00E94E8028BCF93
:1011300080E792E0F0CF80EA92E00E94460461E00E
:101140008CE00E94450261E099CF8F858093600317
:10115000B09261038D85825B809362031F930F932E
:10116000DF92CF92FF92EF9287EB92E09F938F9363
:101170008CE691E09F938F930E9499090FB6F894A3
:10118000DEBF0FBECDBF039709F0F2CE8F858093EF
:101190005E038D8580935D03898180935C03EE24DB
:1011A000E394E092910388E68093B3031092920354
:1011B0001092B40360E082E594E00E94A20360E82C
:1011C00082E594E00E94A20380915D039AE0F92EEB
:1011D0006F2D0E945C098295807F682F690F82E5E0
:1011E00094E00E94A20380915E036F2D0E945C092F
:1011F0008295807F682F690F82E594E00E94A203A8
:1012000080915F036F2D0E945C098295807F682F1B
:10121000690F82E594E00E94A203809160036F2D24
:101220000E945C098295807F682F690F82E594E0B7
:101230000E94A203809161036F2D0E945C09829538
:10124000807F682F690F82E594E00E94A20380915D
:1012500062038E516F2D0E945C098295807F682FFA
:10126000690F82E594E00E94A20381E00E94B5002C
:10127000811127CFE0926303E092910310929203D1
:101280001092B40360E082E594E00E94A203809192
:101290005C036F2D0E945C098295807F682F690F27
:1012A00082E594E00E94A20381E00E94B5008111D2
:1012B00008CFFF24F39408CF991B79E004C0991F4D
:1012C000961708F0961B881F7A95C9F780950895A0
:1012D000A1E21A2EAA1BBB1BFD010DC0AA1FBB1F3A
:1012E000EE1FFF1FA217B307E407F50720F0A21BAC
:1012F000B30BE40BF50B661F771F881F991F1A9419
:1013000069F760957095809590959B01AC01BD0142
:10131000CF010895EE0FFF1F0590F491E02D099481
:10132000FB01DC018D91019080190110D9F3990B1B
:101330000895AEE0B0E0EFE9F9E00C94BD0C85E073
:101340008C838B899C899A838983AE01495E5F4F28
:101350006D897E89CE0101960E943D0B2E96E2E0BA
:101360000C94D90C20FD09C0FC0123FD05C022FF0F
:1013700002C07383628351834083089544FD17C084
:1013800046FD1DC0DB01FC01AA0FBB1FEE1FFF1FA6
:101390001094D1F76A0F7B1F8E1F9F1F660F771F58
:1013A000881F991F620F711D811D911D089533E0E3
:1013B000660F771F881F991F3150D1F7F3CF34E0A4
:1013C000F7CF0F931F93CF93DF938C01C8010E9437
:1013D000560CEC0197FD08C00E94420C892BB1F716
:1013E000B801CE010E94920CCE01DF91CF911F91E6
:1013F0000F9108958F929F92AF92BF92EF92FF92BA
:101400000F931F93CF93DF938C01D62F7A01B22EC7
:101410000E94560C9C0133272B32310529F02D32C6
:101420003105A9F46894B7F8D15061F480E0DF91F8
:10143000CF911F910F91FF90EF90BF90AF909F9031
:101440008F900895C8010E94560C97FDEFCFCB2DC9
:10145000CD7F2B2D2073F9F48033E9F4AA24AA94CC
:10146000AD0E89F0C8010E94560C97FD0CC0282FC4
:101470002F7D283561F4C264D25029F0C8010E9442
:10148000560C97FF08C0812C912C54011BC0B6FE4E
:101490002BC0C260DA2D812C912C540120ED280F35
:1014A000283028F1C4FD09C02A3008F1C6FF05C064
:1014B0002F7D3FEE320F3630C8F0B8010E94920CFB
:1014C000C1FFB4CFC7FF08C0B094A094909480949B
:1014D000811C911CA11CB11C2C2FB501A401C701BA
:1014E0000E94B20981E0A3CFC261D4CF27504C2F14
:1014F000C501B4010E94BE094B015C01C260D1501C
:1015000009F3C8010E94560C97FFC8CFD9CFA0E2BB
:10151000B0E0EDE8FAE00C94B20C5C01962E7A0192
:10152000CE0101966C0180E2F60111928A95E9F7ED
:10153000F501B381890130E020E0712C812CA0E01D
:1015400041E050E0F801B3FD8591B3FF8191982F00
:101550008F01811107C010E000E0C801A096EDE006
:101560000C94CE0C8E3519F42115310541F1A217DA
:1015700013064CF48D3549F18D3229F4811006C0E3
:10158000882483941DC0882009F464C0E92FE6955F
:10159000E695E695EC0DFD2DF11D892F8770BA01BA
:1015A00001C0660F8A95EAF78081682B60837916FF
:1015B00051F0971510F49F5FE9CF9150E7CFA1E06C
:1015C0002F5F3F4FBFCF812CFBCF882019F08E813A
:1015D00080628E83AA2359F0F6019E012F5D3F4F52
:1015E0008081809580833196E217F307C9F78824BC
:1015F0008394C5010E94560C97FD16C0E82FE6950E
:10160000E695E695EC0DFD2DF11D208130E0AC0155
:101610004770552702C0359527954A95E2F720FD7A
:1016200006C0B5010E94920C882069F094CFE114A5
:10163000F10429F0F7018083C70101967C019A9497
:10164000812C9110D6CFE114F10409F486CFF70173
:10165000108283CFE82FE695E695E695EC0DFD2DFB
:10166000F11D982F9770BA0101C0660F9A95EAF79D
:101670009081692B6083782EA3CFB0E0A0E0E3E4F3
:10168000FBE00C94B00C6C01EB015A01FC011782D9
:101690001682512CF601E380FE01E3FC8591E3FE06
:1016A0008191182FEF018823E9F090E00E94420C0D
:1016B000892B21F0C6010E94E109ECCF153241F4DB
:1016C000FE01E3FC1591E3FE1191EF01153269F47F
:1016D000C6010E94560C97FD8EC01817D9F2B601AC
:1016E0000E94920C852D90E08AC000E01A3231F4FD
:1016F000E3FC1591E3FE1191EF0101E0F12C20EDE7
:10170000210F2A3048F101FF37C0FF2059F3183666
:10171000B1F11C3609F43DC0112321F3612F70E0B3
:1017200088E690E00E944B0C892BE1F2912C812CF1
:1017300000FD06C0F50180809180C50102965C0124
:101740001E3679F5F6014681578170E060E0202F62
:10175000C4010E94B2099ECF02606F2D70E090E03C
:1017600080E040E20E94BE09F62EFE01E3FC1591E6
:10177000E3FE1191EF01C3CFFF24FA94C8CFFE011D
:10178000E3FC1591E3FE1191EF01183609F0C4CF87
:1017900008600460FE01E3FC1591E3FE1191EF0186
:1017A000BBCF1336C1F401FD02C0FF24F394C60180
:1017B0000E94560C97FD1FC08114910429F0F4017A
:1017C0008083C40101964C01FA94F110F0CF00FD22
:1017D00061CF53945FCF1B35B9F49E01A4016F2DE7
:1017E000C6010E94870AEC01892B89F7F6018381E3
:1017F000807309F477CF8FEF9FEF511073CFCDB780
:10180000DEB7EFE00C94CC0CC6010E94E10997FD15
:10181000F2CF1F36A9F130F4143641F0193639F001
:10182000006405C01337B9F01537D1F70062202FD7
:10183000A4016F2DC6010E94FA098111C8CFD6CF2D
:101840008114910429F0F4016082C40101964C01D5
:10185000FA94FF2071F0C6010E94560C3C0197FDDE
:1018600008C00E94420C892B59F3B601C3010E94A3
:10187000920C8114910409F4AACFF4011082A7CF2D
:101880000061D5CF91110C94AA0C803219F08950C7
:101890008550C8F70895FC010590061621F0002038
:1018A000D9F7C00108953197CF010895CF93DF9301
:1018B000EC012B8120FF1AC026FF0CC02F7B2B834D
:1018C0008E819F8101969F838E838A8190E0DF9134
:1018D000CF91089522FF18C0E881F9818081082EF8
:1018E000000C990B009729F420622B838FEF9FEF58
:1018F000EECF3196F983E8832E813F812F5F3F4FF2
:101900003F832E839927E3CFEA85FB85099597FFCF
:10191000F3CF2B81019621F080E2822B8B83E6CFDF
:1019200080E1FBCFFB01238120FF11C026FD0FC00A
:101930008F3F980771F082832F7D20642383268157
:1019400037812150310937832683992708958FEFF6
:101950009FEF08959927882708952F923F924F92DD
:101960005F926F927F928F929F92AF92BF92CF922F
:10197000DF92EF92FF920F931F93CF93DF93CDB738
:10198000DEB7CA1BDB0B0FB6F894DEBF0FBECDBFB0
:1019900009942A88398848885F846E847D848C8481
:1019A0009B84AA84B984C884DF80EE80FD800C818A
:1019B0001B81AA81B981CE0FD11D0FB6F894DEBF6D
:0C19C0000FBECDBFED010895F894FFCFDD
:1019CC00C002C402C802CC02D002D402D802DC028B
:1019DC00E002E402E802EC0200000000D301330153
:1019EC006001250291016F01830100000000A20338
:1019FC007503D10352031A03620353030D0A002526
:101A0C0073202564202564004D6179203138203203
:101A1C003032300044533133303720636F6E666997
:101A2C0067757265642054696D653D0031303A32DA
:101A3C00313A3333002C20446174653D00445331FA
:101A4C0033303720436F6D6D756E69636174696FE8
:101A5C006E204572726F72203A2D7B00506C65615E
:101A6C00736520636865636B20796F757220636999
:101A7C007263756974727900436F756C64206E6F54
:101A8C007420706172736520696E666F2066726F68
:101A9C006D2074686520636F6D70696C65722C20A5
:101AAC0054696D653D2200222C20446174653D22F1
:101ABC00004F6B2C2054696D65203D20002C204478
:101ACC006174652028442F4D2F5929203D20005446
:101ADC006865204453313330372069732073746F39
:101AEC00707065642E2020506C6561736520727572
:101AFC006E207468652053657454696D6500657853
:101B0C00616D706C6520746F20696E697469616CAD
:101B1C00697A65207468652074696D6520616E64EE
:101B2C0020626567696E2072756E6E696E672E0035
:101B3C004453313330372072656164206572726FA3
:101B4C0072212020506C6561736520636865636B3E
:101B5C0020746865206369726375697472792E00EC
:101B6C005468652076616C76652069732074757293
:101B7C006E6564206F6E0025643A25643A25640016
:101B8C004A616E00466562004D61720041707200E0
:101B9C004D6179004A756E004A756C00417567009D
:101BAC00536570004F6374004E6F7600446563009C
:00000001FF
