:100000000C9468000C9490000C9490000C94900058
:100010000C9490000C9490000C9490000C94900020
:100020000C9490000C9490000C9490000C94900010
:100030000C9490000C9490000C9490000C94900000
:100040000C9405070C9490000C94D3060C94AD0608
:100050000C9490000C9490000C9490000C949000E0
:100060000C944F070C9490006364696E6F70737505
:1000700078585B0000000000240027002A000000E0
:100080000000250028002B000000000023002600AF
:10009000290004040404040404040202020202020B
:1000A000030303030303010204081020408001023C
:1000B00004081020010204081020000000080002BB
:1000C00001000003040700000000000000006E08AB
:1000D00011241FBECFEFD8E0DEBFCDBF13E0A0E0FC
:1000E000B1E0E6E6FDE102C005900D92A630B10751
:1000F000D9F724E0A6E0B3E001C01D92AB37B20708
:10010000E1F710E0C8E6D0E004C02197FE010E94AC
:10011000570BC736D107C9F70E94C7080C94B10E18
:100120000C94000008950895EAECF3E0A089B189E9
:1001300082E08C93A485B5851C92A685B7858FEC4B
:100140008C93108EA489B58986E08C93A289B3899B
:100150008C9180618C93A289B3898C9188608C93F7
:10016000A289B3898C9180688C930288F389E02DF1
:1001700080818F7D80830895AF92BF92CF92DF926E
:10018000EF92FF920F931F93CF93DF936C017B014C
:100190008B01040F151FEB015E01AE18BF08C017DD
:1001A000D10759F06991D601ED91FC910190F08150
:1001B000E02DC6010995892B79F7C501DF91CF9113
:1001C0001F910F91FF90EF90DF90CF90BF90AF9075
:1001D0000895FC01538D448D252F30E0842F90E04D
:1001E000821B930B541710F0CF9608950197089532
:1001F000FC01918D828D981761F0A28DAE0FBF2FFB
:10020000B11D5D968C91928D9F5F9F73928F90E050
:1002100008958FEF9FEF0895FC01918D828D9817BF
:1002200031F0828DE80FF11D858D90E008958FEFFC
:100230009FEF0895FC01918D228D892F90E0805CC5
:100240009F4F821B91098F73992708958AEC93E041
:100250000E941A0121E0892B09F420E0822F0895E1
:1002600080E090E0892B29F00E94260181110C94F6
:1002700000000895FC01A48DA80FB92FB11DA35A49
:10028000BF4F2C91848D90E001968F739927848FB6
:10029000A689B7892C93A089B1898C9183708064D9
:1002A0008C93938D848D981306C00288F389E02D7A
:1002B00080818F7D80830895EF92FF920F931F932B
:1002C000CF93DF93EC0181E0888F9B8D8C8D981309
:1002D0001AC0E889F989808185FF15C09FB7F89415
:1002E000EE89FF896083E889F98980818370806461
:1002F00080839FBF81E090E0DF91CF911F910F91AC
:10030000FF90EF900895F62E0B8D10E00F5F1F4FBA
:100310000F731127E02E8C8D8E110CC00FB607FCC9
:10032000FACFE889F989808185FFF5CFCE010E9457
:100330003A01F1CFEB8DEC0FFD2FF11DE35AFF4F8A
:10034000F0829FB7F8940B8FEA89FB8980818062E5
:10035000CFCF682F8AEC93E00C945C01CF93DF93AE
:10036000EC01888D8823B9F0AA89BB89E889F989CD
:100370008C9185FD03C0808186FD0DC00FB607FC02
:10038000F7CF8C9185FFF2CF808185FFEDCFCE0135
:100390000E943A01E9CFDF91CF910895833081F037
:1003A00028F4813099F08230A9F008958730A9F0BF
:1003B0008830C9F08430B1F4809180008F7D03C013
:1003C000809180008F7780938000089584B58F7727
:1003D00084BD089584B58F7DFBCF8091B0008F7769
:1003E0008093B00008958091B0008F7DF9CF1F9366
:1003F000CF93DF93282F30E0F901E654FF4F84912B
:10040000F901EA55FF4FD491F901EE56FF4FC4911F
:10041000CC23A9F0162F81110E94CE01EC2FF0E021
:10042000EE0FFF1FE258FF4FA591B4918FB7F894DC
:10043000EC91111108C0D095DE23DC938FBFDF91C2
:10044000CF911F910895DE2BF8CFCF93DF9390E0EB
:10045000FC01EA55FF4F24918E569F4FFC01849179
:100460008823D1F090E0880F991FFC01EC58FF4FD2
:10047000A591B491FC01E258FF4FC591D49162302F
:1004800071F49FB7F8943C91822F809583238C93CD
:10049000E8812E2B28839FBFDF91CF9108958FB7DE
:1004A000F894EC912E2B2C938FBFF6CF3FB7F89496
:1004B00080916F0390917003A0917103B0917203CA
:1004C00026B5A89B05C02F3F19F00196A11DB11DAF
:1004D0003FBFBA2FA92F982F8827BC01CD01620FEB
:1004E000711D811D911D42E0660F771F881F991FA6
:1004F0004A95D1F708958F929F92AF92BF92CF9273
:10050000DF92EF92FF924B015C010E9456026B0159
:100510007C010E9456026C197D098E099F09683E74
:10052000734081059105A8F321E0821A9108A10882
:10053000B10888EEC80E83E0D81EE11CF11C8114BE
:100540009104A104B10429F7FF90EF90DF90CF90C0
:10055000BF90AF909F908F90089580916D0490917F
:100560006E04891B990B089520912703260F3327CA
:10057000331F21323105ECF42091A203FC0190E0FD
:1005800080E0243069F082E00895A0912703219152
:10059000AC01495F5C4FA40FB52FB11D2C930196A0
:1005A000861798F380912703680F6093270380E0F4
:1005B000089581E008951092A20381E08093A10341
:1005C00010927C0361E082E10E94F70161E083E127
:1005D0000E94F701E9EBF0E080818E7F80838081CB
:1005E0008D7F808388E48093B80085E48093BC008D
:1005F0000895CF93DF9391E0909306038823B9F099
:10060000C091B800D091BA008091BC008A7B8093E1
:10061000BC0060E082E10E94F70160E083E10E949B
:10062000F7010E94DB02D093BA00C093B800DF91BB
:10063000CF9108958F929F92AF92BF92CF92DF9207
:10064000EF92FF920F931F93CF93DF93D0916B04A0
:10065000D13208F0D7C0182FC091C9030E945602AA
:100660006B017C018091A20381116BC082E08093B9
:10067000A2031093A1038FEF8093A00310929F0316
:10068000D0939E03A9EAB3E0EEE7F3E080E0D8134D
:1006900091C010927D0380917D03CC0FC82BC09335
:1006A0007D0380917C03813009F088C010927C0327
:1006B0000E9456026B017C0180917D038093BB00F8
:1006C0008091A4039091A503A091A603B091A703E4
:1006D000892B8A2B8B2BA1F00E9456020091A40338
:1006E0001091A5032091A6033091A7036C197D09F1
:1006F0008E099F09061717072807390708F442C013
:100700008091BC0083FDD8CF85EC8093BC000E9413
:1007100056026B017C018091A203823009F450C023
:100720008091A0038F3F09F46FC08091A0038032B5
:1007300009F46CC08091A003803309F469C084E09F
:1007400026C08091A4039091A503A091A603B09127
:10075000A703892B8A2B8B2B09F484CF0E94560286
:100760008090A4039090A503A090A603B090A70347
:100770006C197D098E099F0986169706A806B90689
:1007800008F070CF8091A3030E94F90285E01092D7
:100790006C0410926B041092A803DF91CF911F910B
:1007A0000F91FF90EF90DF90CF90BF90AF909F9010
:1007B0008F9008959D9191938F5F69CF85EEA5CF1E
:1007C0008091A4039091A503A091A603B091A703E3
:1007D000892B8A2B8B2B09F49ECF0E945602009105
:1007E000A4031091A5032091A6033091A7036C19CF
:1007F0007D098E099F09061717072807390708F092
:100800008ACFC0CF81E0C3CF80E0C1CF82E0BFCF2D
:1008100083E0BDCF0895E0916E0480916D04E817E8
:1008200030F4F0E0E65BFC4F808190E008958FEFBC
:100830009FEF089590916E0480916D042FEF3FEF2C
:10084000981748F4E92FF0E0E65BFC4F208130E098
:100850009F5F90936E04C9010895CF92DF92EF924B
:10086000FF920F931F93CF93DF937C01CB018A01FB
:100870002091A803222389F0EB016B01C40ED51E41
:10088000CC15DD0569F06991D701ED91FC910190DE
:10089000F081E02DC7010995F3CF642F0E94B402C7
:1008A000C801DF91CF911F910F91FF90EF90DF90E2
:1008B000CF900895CF93DF931F92CDB7DEB76983B2
:1008C0002091A8032223F9F020916B04203258F0E4
:1008D00021E030E0FC013383228390E080E00F9040
:1008E000DF91CF91089580916C04E82FF0E0E755F7
:1008F000FC4F998190838F5F80936C0480936B048D
:1009000081E090E0ECCF61E0CE0101960E94B4025C
:10091000F7CF90E080E00895FC0101900020E9F716
:100920003197AF01481B590BBC018AEC93E00C9442
:10093000BC008F929F92AF92BF920F931F93CF9361
:10094000DF93CDB7DEB7A1970FB6F894DEBF0FBE29
:10095000CDBF19A2423008F44AE08E010F5D1F4F4F
:10096000842E912CB12CA12CA50194010E94350B51
:10097000E62FB901CA01EA30F4F4E05DD801EE9344
:100980008D01232B242B252B79F790E080E0109705
:1009900019F0CD010E948C04A1960FB6F894DEBF29
:1009A0000FBECDBFDF91CF911F910F91BF90AF9040
:1009B0009F908F900895E95CE1CFCF92DF92EF9204
:1009C000FF92CF93DF936B017C016DE28AEC93E0A1
:1009D0000E945C01EC0166277727CB016C197D0929
:1009E0008E099F094AE00E9499048C0F9D1FDF9198
:1009F000CF91FF90EF90DF90CF900895CF93DF934A
:100A00000E948C04EC018CE391E00E948C048C0F1A
:100A10009D1FDF91CF910895CF93DF93EC010A974B
:100A200024F480E390E00E94A901BE01DD0F880B51
:100A3000990B4AE0DF91CF910C9499048F929F9289
:100A4000AF92BF92CF92DF92EF92FF920F931F93DC
:100A5000CF93DF938C01D1E0D093A80388E68093F5
:100A6000C90310926C0410926B0460E08FE694E06E
:100A70000E945A0481E00E941A03C82F882321F0A3
:100A800010927A0380E0FEC0D0937A030E9456024F
:100A90006B017C018091A203811164C081E080938D
:100AA000A2038093A1039FEF9093A00310929F0352
:100AB00096E090939E0380937D0380917D03806DEB
:100AC00080937D0380917C03813009F0E8C010920F
:100AD0007C030E9456026B017C0180917D03809310
:100AE000BB008091A4039091A503A091A603B091AF
:100AF000A703892B8A2B8B2BA1F00E945602809092
:100B0000A4039090A503A090A603B090A7036C192E
:100B10007D098E099F0986169706A806B90608F46E
:100B200042C08091BC0083FDD8CF85EC8093BC008F
:100B30000E9456026B017C018091A203813009F46E
:100B4000B0C080919F03873008F0CDC080919F0393
:100B5000AEE7B3E0EAE4F3E0C81749F19D91919361
:100B6000CF5FFACF8091A4039091A503A091A60333
:100B7000B091A703892B8A2B8B2B09F48BCF0E9472
:100B800056028090A4039090A503A090A603B09075
:100B9000A7036C197D098E099F0986169706A8067A
:100BA000B90608F077CF8091A3030E94F902109252
:100BB0006E04C0936D04C73008F464CF8FE694E0F0
:100BC0000E941A04C82F982F92959770DAE08C2F04
:100BD0008F709D9F800D1124F80180838FE694E033
:100BE0000E941A04982F92959F708F709D9F800D80
:100BF0001124F80181838FE694E00E941A04982F53
:100C0000929593708F709D9F800D1124F8018283BF
:100C10008FE694E00E941A04982F92959F708F702F
:100C20009D9F800D1124F80183838FE694E00E943C
:100C30001A04982F92959F708F709D9F800D11249C
:100C4000F80184838FE694E00E941A04982F92950D
:100C50009F708F709D9F800D1124F80185838FE612
:100C600094E00E941A04982F9F70925E82958F7074
:100C70008D9F900D1124F80196838C2F8095881FED
:100C80008827881FDF91CF911F910F91FF90EF90E0
:100C9000DF90CF90BF90AF909F908F90089585EE9A
:100CA00045CF8091A4039091A503A091A603B09194
:100CB000A703892B8A2B8B2B09F43ECF0E94560267
:100CC0008090A4039090A503A090A603B090A703E2
:100CD0006C197D098E099F0986169706A806B90624
:100CE00008F02ACF60CF87E033CF85ED8093BC003A
:100CF0008091A4039091A503A091A603B091A703AE
:100D00000796A11DB11D23E0B695A79597958795E8
:100D10002A95D1F72091BC0024FD03C01092A203B4
:100D200008954091A4035091A5036091A60370918A
:100D3000A703452B462B472B69F30097A105B10567
:100D400041F025E32A95F1F700000197A109B109C7
:100D5000E1CF8091A3030C94F9021F920F920FB67A
:100D60000F9211242F933F934F935F936F937F9331
:100D70008F939F93AF93BF93EF93FF938AEC93E08E
:100D80000E943A01FF91EF91BF91AF919F918F9196
:100D90007F916F915F914F913F912F910F900FBE77
:100DA0000F901F9018951F920F920FB60F9211245B
:100DB0002F938F939F93EF93FF93E091DA03F0913A
:100DC000DB038081E091E003F091E10382FD1BC031
:100DD00090818091E3038F5F8F732091E4038217EA
:100DE00041F0E091E303F0E0E653FC4F958F8093F0
:100DF000E303FF91EF919F918F912F910F900FBE81
:100E00000F901F9018958081F4CF1F920F920FB60C
:100E10000F9211242F933F938F939F93AF93BF9380
:100E200080916B0390916C03A0916D03B0916E0360
:100E300030916A0323E0230F2D3758F50196A11D49
:100E4000B11D20936A0380936B0390936C03A0936E
:100E50006D03B0936E0380916F0390917003A09126
:100E60007103B09172030196A11DB11D80936F03B0
:100E700090937003A0937103B0937203BF91AF91ED
:100E80009F918F913F912F910F900FBE0F901F90C8
:100E9000189526E8230F0296A11DB11DD2CF1F92EF
:100EA0000F920FB60F9211242F933F934F935F939E
:100EB0006F937F938F939F93AF93BF93EF93FF9322
:100EC0008091B900887F803609F44AC0F0F58832F5
:100ED00009F4A7C018F5803109F49BC0B8F4882341
:100EE00009F4F9C0883009F494C0FF91EF91BF91E3
:100EF000AF919F918F917F916F915F914F913F91B2
:100F00002F910F900FBE0F901F901895883109F404
:100F100088C0803251F78093A00314C0803409F454
:100F20009DC040F48033B9F38833F9F68093A00371
:100F300085ECB0C0803509F485C0883509F496C0C9
:100F4000883499F60E947506D0CF883909F48CC090
:100F500038F5883729F050F4883611F0803729F6B3
:100F600083E08093A2031092490357C0883809F4A4
:100F70007BC0803919F0803809F0B7CF80914903E0
:100F8000803208F071C0E091490381E08E0F8093B8
:100F900049038091BB00F0E0E75DFC4F80833DC0DA
:100FA000803B39F0E0F4803A09F479C0883A09F0DE
:100FB0009CCF84E08093A203109228031092270311
:100FC000E0916704F09168040995809127038111ED
:100FD0000FC081E0809327031092070309C0803C73
:100FE00009F4A6CF883C09F4A3CF883B09F07DCF54
:100FF000E091280381E08E0F80932803F0E0E95F01
:10100000FC4F80818093BB0090912803809127033F
:1010100029C080917D038093BB0085EC8093BC0048
:1010200064CF90919F0380919E03981758F5E091AB
:101030009F0381E08E0F80939F03F0E0E258FC4F06
:101040008081E9CFE0919F0381E08E0F80939F0321
:101050008091BB00F0E0E258FC4F808390919F03A9
:1010600080919E039817C8F285E8D8CFE0919F033E
:1010700081E08E0F80939F038091BB00F0E0E258E7
:10108000FC4F80838091A10381115CCF81E080932C
:101090007C0384EA8093BC001092A20326CF85ECE7
:1010A0008093BC001092A20380914903803230F4F7
:1010B000E0914903F0E0E75DFC4F10826091490345
:1010C00070E0E0916904F0916A0489E293E0099587
:1010D000109249030ACF1092A00334CFCF92DF922F
:1010E000EF92FF92EAECF3E01382128288EEC82EB0
:1010F00083E0D82EE12CF12CC482D582E682F782DF
:101100008CE191E09183808385EC90E095878487E2
:1011100084EC90E09787868780EC90E0918B808BC1
:1011200081EC90E0938B828B82EC90E0958B848BAA
:1011300086EC90E0978B868B118E128E138E148E18
:1011400010926E0410926D0410926C0410926B0455
:101150000E94DB0282E990E0909368048093670428
:1011600083E990E090936A0480936904EFE6F4E0E9
:1011700013821282C482D582E682F7828EE291E0E7
:1011800091838083FF90EF90DF90CF900895CF936D
:10119000DF93CDB7DEB760970FB6F894DEBF0FBE12
:1011A000CDBF789484B5826084BD84B5816084BDF0
:1011B00085B5826085BD85B5816085BD80916E00F5
:1011C000816080936E001092810080918100826026
:1011D0008093810080918100816080938100809163
:1011E00080008160809380008091B1008460809352
:1011F000B1008091B00081608093B00080917A004E
:10120000846080937A0080917A00826080937A0073
:1012100080917A00816080937A0080917A00806862
:1012200080937A001092C1000E94940010926E0484
:1012300010926D0410926C0410926B040E94DB02F9
:1012400082E990E0909368048093670483E990E0DA
:1012500090936A048093690461E08DE00E94250206
:1012600061E08CE00E94250262E082E00E9425029B
:101270007E012DE0E20EF11C6E013FE0C30ED11C99
:101280004FE3442E41E0542E58E4652E51E0752E74
:101290006DECA62E62E0B62E8E010F5F1F4F332439
:1012A0003394ECEBF0E08491E8EAF0E08490E4E938
:1012B000F0E09490992009F484C081110E94CE013D
:1012C000E92DF0E0EE0FFF1FE857FF4FA591B49115
:1012D0008C91882209F475C0FF92EF92DF92CF9231
:1012E0001F930F935F924F927F926F920E94660BB3
:1012F0000FB6F894DEBF0FBECDBF039799F420E080
:10130000822E21E0922E212CF401619171914F01E6
:10131000C8010E945D0B2394892B09F4E7C0FCE00F
:101320002F12F2CF912C812C0E94940068EC70E077
:1013300080E090E00E947B02882081F1992039F1C1
:1013400084E591E00E948C048CE691E00E948C047C
:1013500085E791E00E948C0488E491E00E94FE04FD
:1013600081EF91E00E94FE0420E030E0232B09F49D
:1013700098CF0E942601882309F491CF0E94000093
:101380008BCF10927A03912C88248394CDCF8DE754
:1013900091E00E94FE048CE991E0E0CF88EB91E0BF
:1013A0000E948C048CE691E00E948C0487EE91E010
:1013B0000E948C0488E491E00E948C0485EE91E008
:1013C000CDCFC8010E941E05882309F466C087E0BE
:1013D00092E00E948C048B8190E00E940C058AE3CD
:1013E00090E00E94A9018A8190E00E940C058AE3A6
:1013F00090E00E94A901898190E00E940C0583E1A0
:1014000092E00E948C046D8170E090E080E04AE000
:101410000E9499048FE290E00E94A9016E8170E021
:1014200090E080E04AE00E9499048FE290E00E9400
:10143000A9016F8170E06E54784F072E000C880B65
:10144000990B4AE00E9499048CE391E00E948C047D
:1014500068EE73E080E090E00E947B02C8010E9489
:101460001E05882309F480CF8B8190E08730910599
:1014700011F0439719F48A818F3048F110927B0361
:1014800080917B03811170CF60E08CE00E94F701B6
:1014900060E08DE00E94F70167CF80917A03882396
:1014A00099F085E292E00E94FE0484E592E00E94B9
:1014B000FE048CE391E00E948C0468E273E280E019
:1014C00090E00E947B02C4CF86E892E0F0CF309299
:1014D0007B0386EB92E00E94FE0461E08CE00E94B8
:1014E000F70161E08DE00E94F701CACF8F858093FC
:1014F0007703209278038D85825B809379031F9315
:101500000F93FF92EF92DF92CF92BF92AF928CE651
:1015100091E09F938F930E94660B0FB6F894DEBF05
:101520000FBECDBF039709F0FDCE8F858093750365
:101530008D85809374038981809373033092A8030F
:1015400088E68093C90310926C0410926B0460E0EB
:101550008FE694E00E945A0460E88FE694E00E94CF
:101560005A04809174039AE0992E692D0E94290BE8
:101570008295807F682F690F8FE694E00E945A045D
:1015800080917503692D0E94290B8295807F682FB9
:10159000690F8FE694E00E945A0480917603692DCA
:1015A0000E94290B8295807F682F690F8FE694E057
:1015B0000E945A0480917703692D0E94290B82951D
:1015C000807F682F690F8FE694E00E945A04809113
:1015D0007803692D0E94290B8295807F682F690FFF
:1015E0008FE694E00E945A04809179038E51692D10
:1015F0000E94290B8295807F682F690F8FE694E007
:101600000E945A0481E00E941A038111BACE3092DE
:101610007A033092A80310926C0410926B0460E07D
:101620008FE694E00E945A0480917303692D0E9412
:10163000290B8295807F682F690F8FE694E00E94C6
:101640005A0481E00E941A0381119BCE992493943D
:101650009BCE991B79E004C0991F961708F0961B42
:10166000881F7A95C9F780950895A1E21A2EAA1BC2
:10167000BB1BFD010DC0AA1FBB1FEE1FFF1FA21742
:10168000B307E407F50720F0A21BB30BE40BF50B3F
:10169000661F771F881F991F1A9469F760957095C8
:1016A000809590959B01AC01BD01CF010895EE0F8F
:1016B000FF1F0590F491E02D0994FB01DC018D9151
:1016C000019080190110D9F3990B0895AEE0B0E0B4
:1016D000ECE6FBE00C948A0E85E08C838B899C8978
:1016E0009A838983AE01495E5F4F6D897E89CE0101
:1016F00001960E940A0D2E96E2E00C94A60E20FDA3
:1017000009C0FC0123FD05C022FF02C07383628370
:1017100051834083089544FD17C046FD1DC0DB0181
:10172000FC01AA0FBB1FEE1FFF1F1094D1F76A0F19
:101730007B1F8E1F9F1F660F771F881F991F620FC9
:10174000711D811D911D089533E0660F771F881F5D
:10175000991F3150D1F7F3CF34E0F7CF0F931F9398
:10176000CF93DF938C01C8010E94230EEC0197FDFB
:1017700008C00E940F0E892BB1F7B801CE010E945C
:101780005F0ECE01DF91CF911F910F9108958F923F
:101790009F92AF92BF92EF92FF920F931F93CF93BE
:1017A000DF938C01D62F7A01B22E0E94230E9C016A
:1017B00033272B32310529F02D323105A9F46894F5
:1017C000B7F8D15061F480E0DF91CF911F910F9174
:1017D000FF90EF90BF90AF909F908F900895C801B9
:1017E0000E94230E97FDEFCFCB2DCD7F2B2D2073A5
:1017F000F9F48033E9F4AA24AA94AD0E89F0C80163
:101800000E94230E97FD0CC0282F2F7D283561F4F0
:10181000C264D25029F0C8010E94230E97FF08C06D
:10182000812C912C54011BC0B6FE2BC0C260DA2D56
:10183000812C912C540120ED280F283028F1C4FD73
:1018400009C02A3008F1C6FF05C02F7D3FEE320FD8
:101850003630C8F0B8010E945F0EC1FFB4CFC7FF99
:1018600008C0B094A09490948094811C911CA11CF9
:10187000B11C2C2FB501A401C7010E947F0B81E090
:10188000A3CFC261D4CF27504C2FC501B4010E9411
:101890008B0B4B015C01C260D15009F3C8010E945F
:1018A000230E97FFC8CFD9CFA0E2B0E0EAE5FCE075
:1018B0000C947F0E5C01962E7A01CE0101966C018C
:1018C00080E2F60111928A95E9F7F501B381890169
:1018D00030E020E0712C812CA0E041E050E0F801E4
:1018E000B3FD8591B3FF8191982F8F01811107C0BE
:1018F00010E000E0C801A096EDE00C949B0E8E3540
:1019000019F42115310541F1A21713064CF48D3558
:1019100049F18D3229F4811006C0882483941DC0BA
:10192000882009F464C0E92FE695E695E695EC0D6C
:10193000FD2DF11D892F8770BA0101C0660F8A95B0
:10194000EAF78081682B6083791651F0971510F4BF
:101950009F5FE9CF9150E7CFA1E02F5F3F4FBFCF0F
:10196000812CFBCF882019F08E8180628E83AA2380
:1019700059F0F6019E012F5D3F4F80818095808355
:101980003196E217F307C9F788248394C5010E94B2
:10199000230E97FD16C0E82FE695E695E695EC0D2B
:1019A000FD2DF11D208130E0AC014770552702C0AC
:1019B000359527954A95E2F720FD06C0B5010E94AE
:1019C0005F0E882069F094CFE114F10429F0F7014B
:1019D0008083C70101967C019A94812C9110D6CF07
:1019E000E114F10409F486CFF701108283CFE82FC8
:1019F000E695E695E695EC0DFD2DF11D982F977077
:101A0000BA0101C0660F9A95EAF79081692B60834D
:101A1000782EA3CFB0E0A0E0E0E1FDE00C947D0ED5
:101A20006C01EB015A01FC0117821682512CF60160
:101A3000E380FE01E3FC8591E3FE8191182FEF0125
:101A40008823E9F090E00E940F0E892B21F0C60157
:101A50000E94AE0BECCF153241F4FE01E3FC159170
:101A6000E3FE1191EF01153269F4C6010E94230EC5
:101A700097FD8EC01817D9F2B6010E945F0E852D12
:101A800090E08AC000E01A3231F4E3FC1591E3FEE5
:101A90001191EF0101E0F12C20ED210F2A3048F1E6
:101AA00001FF37C0FF2059F31836B1F11C3609F495
:101AB0003DC0112321F3612F70E088E690E00E9481
:101AC000180E892BE1F2912C812C00FD06C0F50146
:101AD00080809180C50102965C011E3679F5F60181
:101AE0004681578170E060E0202FC4010E947F0B87
:101AF0009ECF02606F2D70E090E080E040E20E9497
:101B00008B0BF62EFE01E3FC1591E3FE1191EF0124
:101B1000C3CFFF24FA94C8CFFE01E3FC1591E3FE86
:101B20001191EF01183609F0C4CF08600460FE017E
:101B3000E3FC1591E3FE1191EF01BBCF1336C1F425
:101B400001FD02C0FF24F394C6010E94230E97FDFD
:101B50001FC08114910429F0F4018083C40101960F
:101B60004C01FA94F110F0CF00FD61CF53945FCF98
:101B70001B35B9F49E01A4016F2DC6010E94540CBF
:101B8000EC01892B89F7F6018381807309F477CF03
:101B90008FEF9FEF511073CFCDB7DEB7EFE00C940E
:101BA000990EC6010E94AE0B97FDF2CF1F36A9F128
:101BB00030F4143641F0193639F0006405C013379B
:101BC000B9F01537D1F70062202FA4016F2DC6019F
:101BD0000E94C70B8111C8CFD6CF8114910429F080
:101BE000F4016082C40101964C01FA94FF2071F067
:101BF000C6010E94230E3C0197FD08C00E940F0EF3
:101C0000892B59F3B601C3010E945F0E8114910420
:101C100009F4AACFF4011082A7CF0061D5CF9111AA
:101C20000C94770E803219F089508550C8F70895CA
:101C3000FC010590061621F00020D9F7C001089597
:101C40003197CF010895CF93DF93EC012B8120FFD3
:101C50001AC026FF0CC02F7B2B838E819F8101969B
:101C60009F838E838A8190E0DF91CF91089522FF38
:101C700018C0E881F9818081082E000C990B00972B
:101C800029F420622B838FEF9FEFEECF3196F983FB
:101C9000E8832E813F812F5F3F4F3F832E8399271B
:101CA000E3CFEA85FB85099597FFF3CF2B8101965A
:101CB00021F080E2822B8B83E6CF80E1FBCFFB011A
:101CC000238120FF11C026FD0FC08F3F980771F0C0
:101CD00082832F7D2064238326813781215031091F
:101CE00037832683992708958FEF9FEF08959927CB
:101CF000882708952F923F924F925F926F927F9222
:101D00008F929F92AF92BF92CF92DF92EF92FF920B
:101D10000F931F93CF93DF93CDB7DEB7CA1BDB0BB7
:101D20000FB6F894DEBF0FBECDBF09942A8839885C
:101D300048885F846E847D848C849B84AA84B98463
:101D4000C884DF80EE80FD800C811B81AA81B9816F
:101D5000CE0FD11D0FB6F894DEBF0FBECDBFED0183
:061D60000895F894FFCF86
:101D6600D602DA02DE02E202E602EA02EE02F2023D
:101D7600F602FA02FE020203000000005C01BC004B
:101D8600E900AE011A01F8000C01000000005A0437
:101D96002D0489040A04AD021A040B040D0A002559
:101DA6007320256420256400417567203137203271
:101DB6003032300044533332333120636F6E6669FC
:101DC60067757265642054696D653D0031383A3037
:101DD600383A3035002C20446174653D0044533355
:101DE60032333120436F6D6D756E69636174696F4F
:101DF6006E204572726F72203A2D7B00506C6561C1
:101E0600736520636865636B20796F7572206369FB
:101E16007263756974727900436F756C64206E6FB6
:101E26007420706172736520696E666F2066726FCA
:101E36006D2074686520636F6D70696C65722C2007
:101E460054696D653D2200222C20446174653D2253
:101E5600003D3D3D54696D6520697320726573656B
:101E66007465643D3D3D004F6B2C2054696D6520C3
:101E76003D20002C20446174652028442F4D2F59A5
:101E860029203D20005468652044533332333120E5
:101E960069732073746F707065642E2020506C65B2
:101EA6006173652072756E2074686520536574547D
:101EB600696D65006578616D706C6520746F206969
:101EC6006E697469616C697A6520746865207469E5
:101ED6006D6520616E6420626567696E2072756E3D
:101EE6006E696E672E00445333323331207265615A
:101EF60064206572726F72212020506C6561736573
:101F060020636865636B2074686520636972637516
:101F1600697472792E005468652076616C76652046
:101F26006973207475726E6564206F6E0025643A5D
:101F360025643A2564004A616E00466562004D617B
:101F46007200417072004D6179004A756E004A75E3
:101F56006C0041756700536570004F6374004E6FE7
:061F6600760044656300F3
:00000001FF
